:400000000080002011000000191700001917000010B501F0A3FBC04670B512223D4B1A6003F01EFE3C4804F03FF8012003F038FE302003F0C7FC394A394B1A60394D802342
:40004000DB052B60384A116802230B431360374A374B1A600022374B1A60374A136808218B431360FA20C00003F05EFD334803F09FFC334A334B1A60334B344A1A60A02156
:40008000C900334A1160334A1A6084218901324A1160324A1A60FE22120231490A603149196031490A60314A1A60C8214901304A1160304A1A60822212062F4B1A60802436
:4000C00024032E4B1C6045222D4B1A60033A2D4B1A6002322C4B1A60043A2C4B1A6001322B4B1A6002322B4B1A602B49082003F00FFC082003F000FC284B2B60284B1C6023
:40010000274B1B681B03FBD480225202244B1A6070BDC04630001040001BB7000600008004010B400C020B4078002E402D3E00007C002E4064F02E406CF02E40DC050000A2
:4001400000BF0300140301400000014045FF00800803014042FF00801003014044FF00800003014040FF00800403014041FF00800C03014043FF008008010B4000010B407F
:400180003801014030010140180101401401014010010140040101400D3E00000000014710020B4070B572B60022524B1A600132514B1A7000240FE05048620013195900AA
:4001C0000B00411889881A5AC31858880004104301F06AFA0134E4B2022CEDD9002411E0464EA2001319590071188D8AC88A000428430A8B498B09041143802201F05AFA0E
:400200000134E4B2002CEBD03C4920313C48383001F030FAA02212013A4B1A8001213A4B19708022D202394B1A60394A394B1A60394A3A4B1A60C0229205394B1A60992361
:400240001B04384A1360A220C005374A1060374A13608420C003364A1060364A1360364A1360A8221204354B1A6080221206344B1A600223334A1360334A13603348037839
:400280003C22934314221343DBB20370304A107816230343DBB2137020232E4A13602E482E4A106029202E4A10602E482E4A10602E4A1360BC222E4B1A608022D2032D4B27
:4002C0001A60C02212022C4B1A603E222B4B1A6043322B4B1A602B4A2B4B1A60FC222B4B1A602B4B19602B4B1960FFF795FE01F0F5F970BD6CF02E401C700F40F8D701008D
:40030000F8D9010000600F4002600F4014000B40000030EE0000024003309900000102400003024000500F4008500F4010500F4018500F4020500F4030500F4034500F406B
:4003400038500F402000104000800F4001700F4000700F4000000440B60DDB000800044000010440061C0300080104401801044000020440080204400C0204401802044062
:40038000000304404802D800080304400C030440180304401804044010B5064C2378002B07D1054B002B02D0044800E000BF0123237010BD3018002000000000ACC8010025
:4003C000084B10B5002B03D00749084800E000BF07480368002B00D110BD064B002BFBD09847F9E70000000034180020ACC80100380F00200000000030B585B00C002D285C
:4004000000D131E12CD8232800D143E112D8042800D198E006D802286BD000D98FE001285DD06FE2212800D101E100D90DE105285BD067E2272800D1AFE005D8252800D1F6
:4004400046E100D82FE182E0292800D166E100D2E4E02A2800D1C8E02C2800D11FE151E2542800D1A7E116D8422800D194E108D8402800D157E100D983E1332800D1FBE0E1
:4004800040E24C2800D18EE14E2800D18FE1432800D037E2A4E1FA2800D115E109D8702800D1A7E1712800D1AEE0572800D029E285E10623FF33984200D189E104D8013BDB
:4004C000984200D180E11DE283235B00984200D182E1E0231B02984200D117E212E2C74805F0BEFA00F0C0FF10E2C54805F0B8FA0CE2C44805F024FA217802290CD002D892
:40050000012905D014E003290AD004290CD00FE0BD4805F015FA0EE0BC4805F011FA0AE0BB4805F00DFA06E0BA4805F009FA02E0B94805F005FAB94805F092FAE6E1B848E6
:4005400005F08EFAE2E1B74805F08AFADEE1B64805F086FAB54B1B78042B00D0D6E1B44805F07EFA012001F017FA012001F008FA03F030F803F07AF803F05CF801F078F97F
:40058000AC4B1B6880221202134000D001231B18002BF3D103F000FBB8E1488804F0E4F904F09AFC0022A44B04F01CFA02000B00A24805F0C5F9A24B1B781B070ED0A14BBF
:4005C00018789F4912F050FE9F4B1880002808D09E4805F0B5F900F0DDFF02E005229C4B1A70012001F0D8F990E1488804F0BCF904F072FC0022904B04F0F4F902000B00C8
:400600008E4805F09DF981E10B88002B01D1914900E09149914805F093F977E1904805F01FFA904805F01CFA00F01EFF6EE18E4D0522280004F0FDFC29786A78AB78E878DF
:4006400000908A4805F07CF960E1894805F008FA01227F4B1A700023864A13608649874A1160874A137051E10968864805F068F90322774B1A7049E17B4D0522280004F0F6
:40068000D8FC29786A78AB78E87800907E4805F057F93BE109687D4805F052F936E17C4805F0DEF932E1704D0522280004F0C1FC29786A78AB78E8780090764805F040F93A
:4006C0000422634B1A7021E1734805F0C9F91DE1724805F035F9217806290CD002D8042905D014E008290AD015290CD00FE06C4805F0B6F90EE06B4805F0B2F90AE06A4890
:4007000005F0AEF906E0694805F0AAF902E0684805F016F905224E4B1A70F7E00978654805F00EF9F2E0644805F00AF9A178082907D0102909D004290BD1604805F000F9C5
:400740000AE05F4805F0FCF806E05E4805F0F8F802E0314805F0F4F8A1885B4805F0F0F85A4805F0EDF8A1790A2903D1584805F0E7F802E0284805F0E3F8284805F070F9A8
:40078000C4E0544D0222280004F053FC69782A78514805F0D5F8B9E000224E4B5A704F4805F05EF9B2E04E4805F05AF9AEE04D4805F056F9AAE04C4805F052F9A6E04988FA
:4007C0004A4805F0BDF8A1E0494805F049F99DE0484805F045F999E0474805F041F995E00E246C44200013F013FE2188434805F0A7F88BE0424805F033F987E0D8C801008C
:40080000E8C8010000C9010014C901002CC9010040C9010054C9010068C9010000CB01006CC9010084C9010098C90100F22A0020C4C90100080224400000F43FD4C9010054
:40084000E8120020F82A0020C82A00200CCA01004C180020C0C80100CCC801002CCA010058CA01007CCA0100D02A002094CA0100D4CA0100C42A0020A0860100CC2A0020CD
:40088000D52A002004CB01005CCB0100B8CB0100ECCB010014CC010058CC010078CC010098CC0100B4CC0100D8CC0100ECCC010004CD010010CD010028CD010048CD01009A
:4008C00058CD01006CCD010080CD010094CD0100A0CD0100C02A0020B4CD0100E4CD010000CE01001CCE01003CCE010060CE0100A4CE0100C8CE0100F0CE01000CCF0100A3
:4009000040CF01000100024805F01AF805B030BD64CF010010B56422034B5A7002F05AFE02F04CFF10BDC0464C18002010B5104CA3785B000F4A985A02F0CAFEA378013353
:4009400003221340A3700C4B1B78032B0FD1084AD3780133DBB2D370642B08D901F028F8C043C0B201F018F80022014BDA7010BD4C1800203C0F0020F22A0020F0B547467A
:4009800080B4050000241AE0164F63009846DE5BFF239E434346DE530A21280003F0F4FE89B2114B5B5C1E434346DE530A21280003F064FE85B2002D03D00134E4B2032CCA
:4009C000E2D90134E3B207E006495800445AFF22224342520133DBB2032BF5D904BC9046F0BDC0463C0F0020B0C8010030B583B000226B46DA8002F039F9002853D101F09C
:400A0000BBFE002002F040F8284B98423FD0002002F03AF880B26B46D880254B1B89984241D0234B1881FFF7A9FF6B46D9880A00204804F085FF002411E0A5B26B46D888BB
:400A4000052103F01BFE80B2854203D2232004F091FF02E02D2004F08DFF0134E4B2132CEBD90D2004F086FF0A2004F083FF6B46063302220021012001F01AFE0E4B1880A2
:400A8000002810D001000D4804F05AFF0BE0084B1A89064B9A4206D001225242044B1A81074804F0DDFF03B030BDC046FFFF00003C0F00207CCF0100C82A00208CCF01001E
:400AC00000CB010010B582B06B46063300221A8002320121012001F085FA0F4B1880002804D001000D4804F02BFF12E00C4B9B886A46D08883420CD0C043C0B202F07EFE4C
:400B00006B469C1DD988074804F01AFF2288044B9A8002B010BDC046C82A0020C0CF01004C180020F4CF010030B583B000226B46DA7100243DE06B46073301222100002046
:400B400001F050FA1D4B1880002804D001001C4804F0F6FE2BE01B4B1B191A7B6B4607331B789A4223D0174A12191373DB070FD402F014FE144B1B191B7B1843C0B26B46E8
:400B8000D87102F0FFFD611C104804F0D9FE0EE002F004FE0C4B1B191B7B9843C0B26B46D87102F0EFFD611C094804F0C9FE0134E4B2032CBFD903B030BDC046C82A002063
:400BC000C0CF01003C0F0020B0C801001CD001002CD0010070B582B04A4B5B78002B02D0013B484A5370474B5B78012B00D087E002F0E8FCC40002F0D9FD2043C0B2414BBF
:400C00001B78032B76D1404B187476E03E4B1B7C434025000122A24013409A4202D00134E4B268E0384B18742041364B012210405870261DF6B201333100002001F038FD9C
:400C4000324B1880002804D00100314804F078FE0CE02C4B5B78002B04D1611C2D4804F06FFE03E0611C2C4804F06AFE2B4B1B78022B42D1002C1AD1294A224B06330093BA
:400C8000137850780002184302230222012101F02BFA1E4B1880002805D0224804F050FE00F078FC29E0204804F0DAFE25E0691C1E4804F045FE134C61781D4804F040FEC2
:400CC000174A01340094137850780002184301233200002101F008FA0C4B1880002805D0104804F02DFE00F055FC06E00E4804F0B7FE02E00024022C88D90022014B5A705A
:400D000002B070BD4C1800203C0F0020C82A00208CCF01003CD001006CD00100F22A0020F82A00209CD00100B8D00100DCD0010004D1010070B5494B1B78012B4ED0032B72
:400D400000D08AE000F006FEC0B2454B1870002803D1424B1B7A002B7FD0002808D13F4B1B7A002B04D03E4A137000223B4B1A723B4B1B78792B15D13A4804F071FE3A4BB8
:400D800018780122002112F05DFA384B1880002804D0374804F0D4FD00F0FCFB02222F4B1A705AE06E2B15D1324804F059FE2E4B18780022002112F045FA2C4B188000285A
:400DC00004D02B4804F0BCFD00F0E4FB0222234B1A7042E0284804F043FE3EE000F0BAFDC4B21F4B1C70002C37D02300303BDBB2092B15D82300303B204D28684343204A32
:400E000011688C46634413600A2103F037FC28601C4A137801331370200000F01BFD02E0194804F01DFE174B1B78062B15D1174804F016FE124B19680B4B1878012212F0F6
:400E400001FA0A4B1880002804D0114804F078FD00F0A0FB0222014B1A7070BD4C180020CA2A002014D10100F82A0020C82A002030D1010058D1010074D10100CC2A0020C0
:400E8000C42A0020D52A00209CD1010000CB0100B4D1010010B584B02E4C0023E380002003F0B6F80100E080002003F0C7F881B2E180638999424AD0264C6181264804F02D
:400EC0003FFDA31D02220221012001F0F1FB234B1880002803D00100214804F031FD214B1B78022B33D103AC0094023306220221012001F0B1F801211B4804F021FD218836
:400F000062881A4804F01CFD6288124BDB889A4203D803AA1288934219D9154A0D4B06330093137850780002184302230222012101F0DAF8094B1880002805D00D4804F056
:400F4000FFFC00F027FB02E00B4804F089FD04B010BDC0464C180020DCD10100C82A00208CCF0100F22A0020DCD00100ECD10100F82A00209CD00100B8D0010070B584B056
:400F80002F4BD9880E226A4411809B89994255D02B4B99812B4804F0D3FC0E236B4402220221012001F084FB274B1880002803D00100264804F0C4FC254B1B78022B3DD1DF
:400FC0000E256D44009502220321012001F044F80121204804F0B4FC02AB1E885C88220031001D4804F0ACFC2B889C4201D89E421ED21A4A0E246C440094137850780002C0
:40100000184302230222012101F06EF80E4D28802088FFF7B3FC2B88002B05D0104804F08FFC00F0B7FA09E00E4804F019FD05E00D4804F015FD0020FFF7A0FC04B070BDFC
:401040004C180020DCD10100C82A00208CCF0100F22A0020DCD00100ECD10100F82A00209CD00100B8D0010000D2010010B562B6012000F085FC012000F08EFC00F0CCFB5D
:4010800002F070FB02F0DEFB284804F0E9FC284800F0B4FC274B1880002804D0264804F04FFC00F077FA00F053F800F01DFA01F049FB01F019FE214802F0CAFA2049022072
:4010C00002F07AFE022002F087FE02F087FF02F095FF01F009FEFFF7F5FCFFF725FDFFF785FCFFF7D7FEFFF749FF08F001F8FFF771FDFFF71FFE134B1B78002BE9D000F04B
:40110000B7FB114B1B6880221202134000D001231B18002BDDD1002000F0CAFC0100054B18800A4804F00CFCD3E7C0461CD20100F9030000C82A002048D201001509000012
:401140002D090000D82A00200802244060D2010010B5024800F040FF10BDC046FD11000010B5012808D0002802D0022808D00AE0054804F0E5FB06E0044804F0E1FB02E0A6
:40118000034804F0DDFB10BDBCD20100C4D20100CCD2010010B506281ED880000F4B1B589F460F4804F0CCFB16E00E4804F0C8FB12E00D4804F0C4FB0EE00C4804F0C0FB6B
:4011C0000AE00B4804F0BCFB06E00A4804F0B8FB02E0094804F0B4FB10BDC04684D20100D8D20100E0D20100FCD2010018D3010034D301004CD3010064D3010070B50C007E
:401200000300143BFF3B062B00D9F2E09B007B4AD3589F467A4804F093FBA078FFF7A0FFE178784804F08CFB774804F019FCE4E0764804F085FBA078FFF792FFE1787148E2
:4012400004F07EFB724804F00BFCD6E0714804F077FBA078FFF784FFE1786A4804F070FB6D4804F0FDFB62886C4B9A4200D0C4E002F094FA040003202043C0B202F082FA00
:40128000C820400002F07CFB02239C43E4B201200443E0B202F076FAAFE0614804F050FBA078FFF75DFFE178564804F049FB5D4804F0D6FB6288594B9A4200D09DE002F084
:4012C0006DFA01239843C0B202F05CFA95E0564804F036FBA078FFF743FFE178494804F02FFB524804F0BCFB87E0514804F028FBA078FFF735FFE1784E4804F021FB6368D6
:401300009A88012A02D11B681D7803E0186800F097FC050063689A88012A02D11B681A7803E0186800F08CFC020063689B882900414804F005FB60E0404804F001FBA07849
:40134000FFF70EFFE1783E4804F0FAFA3D4804F0F7FA2079FFF71EFF3B4804F0F1FAA3689A88022A18D8012A02D11B681D7803E0186800F065FC0500A3689A88012A02D1E8
:401380001B681A7803E0186800F05AFC020029002E4804F0D5FA26E02D4804F0D1FA002506E01368595D2B4804F0CAFA0135EDB2ABB2A26891888B42F3D3274804F0C0FA65
:4013C000002508E01368585D1F2800D82A2004F0D1FA0135EDB2ABB2A26891888B42F1D31E4804F0ADFAA36899881D4804F0A8FA03E001001B4804F0A3FA70BDA0D2010002
:4014000068D3010090D30100B0D30100CCD30100F4D3010010D4010038D401000102000054D401007CD4010098D40100C0D40100DCD4010004D501001CD5010040D501001C
:401440006CD5010084D5010094D5010098D50100B0D50100BCD50100C4D50100C8D50100CCD50100D8D5010010B582B0002000F0A1FB114B1880002805D0104804F060FA1E
:4014800000F088F816E00E4804F05AFA684607F01DFE062306E05C1E6B46195D094804F04FFAA3B2002BF6D1074804F0D9FA002000F072FA02B010BDC82A0020F8D50100F2
:4014C00018D6010038D6010000CB010070B51600002405E04D1C087800F0BCF901342900B442F7DB300070BD00B585B002A807F0F1FD0A4B1880002804D00100084804F026
:401500001FFA08E002A8018842888388C0880090044804F015FA05B000BDC046C82A002054D6010084D6010010B5114804F008FA104B1A78042A17D893000F4AD3589F4651
:401540000E4804F08DFA12E00D4804F089FA0EE00C4804F085FA0AE00B4804F081FA06E00A4804F07DFA02E0094804F079FA10BDA4D70100F22A002040D60100A4D6010027
:40158000B0D60100C0D60100CCD60100DCD60100ECD6010010B52A4C21882A4804F0D0F92388132B3FD008D8012B1ED0002B18D0022B1ED0072B20D03DE00222FF32934258
:4015C00023D005D8282B32D0013A934219D032E08122520093421CD00422FF3293421CD029E0194804F03CFA28E0184804F038FA24E0174804F034FA20E0164804F030FACA
:401600001CE0154804F02CFA18E0144804F028FA14E0134804F024FA10E0124804F090F9FFF782FF0AE0104804F01AFA06E00F4804F016FA02E00E4804F012FA10BDC04698
:40164000C82A0020F8D6010004D7010008D701001CD7010030D7010044D7010060D7010078D701009CD70100ACD70100C8D70100E4D70100F0B50025002711E0BB00C6581E
:40168000F3B2FF22964308E06A008A181478A419527822700135013BDBB2002BF4D10137082FEBD9F0BDC04610B50A00002103F0C9FC10BD10B503F0BCFC10BD064B1B6897
:4016C000002803D080221206134301E05B005B08014A13607047C04680033A4010B50323084A1360084A136080221206074B1A600122074B1A600022064B1A600120FFF7DA
:40170000DDFF10BD300030403000314000003A4000033A40000E3F4010B503F04FFC03680C2B00D1FEE7FEE710B50300094A1068C318094A9A1A802109018A4202DC054AE2
:40174000136005E003F03AFC0C2303600120404210BDC046500F0020782B002070B50F4E0F4D13E029686B68AC68002202E001C901C30432A242FAD1E868002202E0002169
:4017800002C304328242FAD11035013E002EE9D103F01AFCFFF76AFCFEE7C04601000000D8E4010010B50E4A136801218B43136000230AE0032B03D89A000A49505800E09F
:4017C00009489900094A885001332F2BF2D9FEF7E9FC034A116801230B43136010BDC0460000104000000000191700000000002010B500F099F810BD10B500F041F810BDB5
:4018000010B5044A1368802109060B431360FFF7EFFF10BD0000244010B5064B1B78002B04D1FFF7E9FF0122024B1A70FFF7E8FF10BDC0465A180020014B18687047C04648
:4018400040032440024B1B681F2018407047C04608032440044B1B681F221340082BF9D0024B18607047C0460802244040022440024B1B681F2018407047C04608022440A4
:40188000154A164B1A600023154A13601549164A1160164A16490A6007201649086016490B6006381549086015490A60154A13600421154A1160154A1360154A1360154A53
:4018C0001360154A1360154A1360154A13601268144B1A807047C0460F000002000024404000244001000A0048002440070000800003244004032440100324404400244087
:40190000000224400402244050002440880E2440C80E2440480F2440080F2440C80F2440880F24405C180020064A1168064B0B40902109040B431360044B1A88044B1A6051
:401940007047C04600010240FFFF0FFF5C180020880F244010B5FFF775FF002802D0FFF76BFF00E00020054B1A68D8239B001A4203D01A00014B1A60002010BDC00F2440AC
:4019800004490A687F231A40C301D8B2104308607047C0460003044004490A68D2B240239A438001184010430860704700030440024B186880090123184070470403044076
:4019C00010B500F035FD10BD10B50024064B1C70064B1C70064B1C70FFF7F2FF054B1C70054B1C7010BDC046FB2A0020F42A0020FA2A0020D82A0020E02A002010B590B029
:401A00000400142220490BA803F013FB20231F4AD35C002B05D1FFF7D7FF012120231B4AD154002C2CD01A4B1C6008A805AA426006AB0893042101811731198059800421DC
:401A40001971082313701621694407F02DFC002817D1104B0293104B0193052300930BAB0E4A0F490F4807F075FB002809D101220D4B1A70153251210C4814F023FB00E046
:401A8000012010B010BDC046D4DA010060180020DC2A00207902000000EE01003C0E0000C00000203D1D0000F22A0020E8DA010010B592B00400394B1B78DB070BD50EF036
:401AC00089FF00280AD1354A137801218B4313709B0702D402E0002000E02820002801D0002C1DD02D4B1B789B0719D52C4B1B78042B15D8DA00D31A59009E239B009C460B
:401B00006144284BC918013123000E2226480EF047FF002804D1214A137802218B431370002801D0002C37D01C4B1B780C221A4232D01B0712D53A320021684603F082FAA9
:401B400023004622194968460EF02AFF002823D1124A137808218B4313701DE00E220021684603F06FFA2123114AD25CD3009B1A59009E239B009C4661440A4BC9180131D5
:401B800023000E2268460EF00BFF002804D1034A137804218B43137012B010BDD82A0020F82A002000EE0100E42A002079F001006018002010B502282FD81C4B1B78042BA0
:401BC0002DD11B4B1B785B072CD4002809D1194BB4221A86943A596A0A805B6A10325A800CE001280AD1134B96221A86C822D200596A0A805B6A8022D2015A800E4B187010
:401C00000C48203011F076FE00280DD1084A117804230B43DBB2137006E0012004E00420FF3001E00420FF3010BDC046F22A0020FB2A0020540F0020FA2A00207047C046DB
:401C400003784078000218437047C04670B5050083890D2B1FD1043033332A00002114F07AFA041E11D16868FFF7EAFF830706D50A4B1B68290082204000984705E0074B4B
:401C80001B6829000620FF309847054A137801218B43137000E00024200070BDDC2A0020FB2A0020024B00225A701A707047C046F82A002010B582B00400FFF7C7FF0F4B68
:401CC0001B78DB0704D5002802D1200000F0B4FB0A4B1B78DB070ED4002809D001A912238B70A3890B80C870206812F063FF02E0206812F0E1FF02B010BDC046FB2A002064
:401D000010B5002805D0034B1B78DB0701D500F037FA10BDFB2A00208379002B07D000200BE0C25C002A07D10133DBB200E00023052BF6D9002000E001207047F0B583B079
:401D400004000D00944A117801230B43DBB21370282800D1ACE014D8212800D17FE007D8052863D0062865D0012800D003E120E0262800D1A0E000D996E0242800D18FE05E
:401D8000F9E04C2800D1E1E009D8422800D1D2E0432800D1D2E0412800D0ECE0B4E0542800D1DFE0FA2800D1E0E04E2800D0E2E0D0E001AE0727377000237370300009F0C5
:401DC000EFF9377001237370300009F0E9F9734B1E683000FFF7A0FF00280CD0300007F08BF96E4E00213068FFF728FF30680121FFF724FF0BE06A4E300007F07DF90021C4
:401E00003000FFF71BFF01213000FFF717FF012011F014FC0222634901A803F00AF901A811F02AFC0422604B1A70A4E02A785F4B1A70A0E02B78002B00D09CE06B78002B36
:401E400007D15B4B0222DA8016329A80594A1A606B60514A137801218B4313708BE04E4B1B789B0600D586E0534B1B78102B02D10522514BDA70514B18784F4911F0FCFC07
:401E800001AB1880002804D04D4B1B6801A936209847414A117801230B43DBB213706AE06A78484B1A7066E002223F4B1A7062E004223D4B1A705EE03B4B1B78022B5AD063
:401EC000354A1278D20756D5334A1278520708D50322354B1A70304A137804218B43137049E02D4A1278120708D504222E4B1A70294A137808218B4313703CE0032B3AD1D8
:401F00000422294B1A7036E02C4E02222900300003F08FF80022254B1A703278D3009A1A53002949C918294B9C4661440E22284803F07FF81FE0FFF7B5FE1CE0698816292A
:401F400000D91721288812F03FFE14E02800FFF7B1FE10E0104B1B78DB070CD5280000F06BFA08E02800FFF7CBFE04E0194A117801230B431370084B1A7811231A4209D0A0
:401F8000054A137801218B4313700D4B1B6829002000984703B0F0BDFB2A0020880F00208C0F002044E10100F22A0020F42A002084180020FC0E0020E8120020F82A0020D8
:401FC000DC2A0020E02A002000EE010079020000E42A0020D82A0020014B18607047C0468C18002030B585B0022825D8174C245C8C4223D98000164C20184468002C1FD0C3
:4020000009016418218800291CD001A8018195B2858001930022002114F06CF8002809D12388013B9A00D3189A000A4B9A1813691D8008E0012006E0012004E0012002E087
:40204000132000E0132005B030BDC046F012002054E10100E8DA010070B584B0140002282FD81E4A125C8A422DD9062C2DD880001B4A10184568002D29D009016D182A88B9
:40208000002A26D06200AA185288002A23D001A802819EB28680089B01930022002114F029F800280BD164002D196B88013B9A00D3189A000B4B9A1813691E800CE0012099
:4020C0000AE0012008E0012006E0012004E0132002E0132000E0132004B070BDF012002054E10100E8DA010030B587B001AC20801C0002292CD81D4B5B5C93422AD91C4B78
:402100001B78022B28D189001A4B59184D681201AD186B88013B9A00D3189A00164B9A1813695868FFF78CFD830718D52B88002B18D003A90B810A9B03938C80019812F087
:4021400077FD00280FD103AB1A890C4B9A800AE0012008E0012006E00420FF3003E00220FF3000E0132007B030BDC046F0120020F22A002054E10100E8DA01008C180020C8
:40218000F0B585B00500204B1B68002B39D01E4B9B88002B2FD134E09B001C4AD3185A682301D25A184B9B889A4216D101AF02222900380002F03DFFBE70FC7000227A6013
:4021C00013490B78012083430B700F4B9A801B6839001820FF30984701210134E4B200E0002433000B4A925D944201D20029D3D00136F6B201E000210026022E01D8002912
:40220000EED005B0F0BDC0468C18002054E10100FB2A0020F0120020F0B55F4656464D464446F0B491B0002304E0002106AAD1540133DBB2132BF8D9002304E000210BAA85
:40224000D1540133DBB2062BF8D9764B9B88002B00D0C5E00020DEE0AB00734AD3185A68002A12D02301D3181A88002A0FD09B88002B0ED00DA80381072383800BAB0D9351
:402280000022002113F036FF04E0012002E0012000E0012000280CD10BAA93791B02527913439E4205D99A4503D2A2B293461E0000930134E4B201E05C4E0024594B5B5D70
:4022C0009C4201D20028C7D04346002B53D15B461B01544C1434E418E3890DA803810123838004AB07330D930022002113F002FF00285BD123880DA8038104AB07331B78A5
:402300009B08013383804C464B46013306AA944663440D930022002113F0ECFE002814D044E0039BCE18751C06AB5A5D0198824092469A5D544614439C550826361A5A5D7D
:4023400032415A550131C9B202E000210290039404ABDD79AB0801339942E2D30298019B5B08EB189A084A44D2B29146032213405B0001931AE04346012B17D1AD002A4B9F
:402380005D196A685B461B01D35A0DA803810223838006AB4B440D930022002113F0AAFE002803D14B460233DBB299460137FFB2009B9A4604E000239B469A46B8461F0045
:4023C0004546184B5B5D9F4202D2002800D173E747464B460133DBB299467B1CDFB206E000239946114A0092002700200193012F01D80028DFD000280DD10A4B9B880DA886
:4024000003814B46013B838006AB0D9300230022002113F0A0FE11B03CBC90469946A246AB46F0BDF012002054E10100FFFF000010B5FFF7F1FE10BDF0B55F4656464D46B6
:402440004446F0B487B082468689924B1B68002B00D0FDE00024002707E1C8464B469B008D4AD3185B68002B00D0E5E0EBE043469B00894AD31859682B01C9180B889E4248
:4024800004D1072203AB1A71012412E0072203AB1A71002309E05A008A185288964202D103AA137102240133DBB2062B01D8022CF1D1002F6FD1022C6DD103AB1B79022B83
:4024C00042D002D8002B05D065E0042B50D0052B54D060E00B88013B9A00D3189A006F4B9A185368DA0216D553465868FFF7A8FBC30703D51423FF339B4602E08A235B0024
:402500009B46674B1B78012B45D1664A117802230B4313703FE09B0236D553465868FFF78FFB830703D51623FF339B4602E08B235B009B465A4B1B78012B2CD1594A11785D
:4025400002230B43137026E0CB88013B9900C9188A0052498A18918952461289914215D39900CB1899004D4B59180B691A8012E053465B681B78062B0AD80CE053465B681F
:402580001B78022B06D806E0062704E00D2702E0802700E08027002F4BD1631EDBB2012B47D8534698894222514612F021FF071E39D1012C14D153461B886A4613806B4656
:4025C0004A469A70DD7000236A461372534604330193304B1B6869468C204000984712E0022C10D103A953461B880B804B468B70CD7000234B71534604338B60254B1B68F6
:402600001A20FF3098475346181D40235246002113F0A1FD07005B46002B04D01D4B1B6803A958469847204A137801218B43137009E00135EDB200E000251C4B42469B5CFB
:402640009D4200D213E74B460133DBB2994604E000239B460024002799464B46022B04D8002C02D1002F00D1F7E6002F05D00E4A137801218B43137004E0012C02D1FFF7C2
:40268000CBFD0700380007B03CBC90469946A246AB46F0BD8C18002054E10100E8DA0100E02A0020D82A0020FB2A0020F012002010B584B002281CD8164C245C8C421AD9FF
:4026C0008000154C20184068002816D00901415A002914D001A801818280019300230022002113F038FD002801D0012408E0002406E0012404E0012402E0132400E013248C
:40270000002C04D1FFF788FD002800D01334200004B010BDF012002054E1010010B5084B1B78002B06D100F093F900F0C7F90122034B1A7000F042F800F0DCFB10BDC0464D
:402740009218002010B5FFF7E9FF041E02D100F067FB0400002C02D100F0C6FA0400002C03D100F083FA0028FBD100F0B1F900F0F7F9200010BDC04670B50E4E0025002456
:4027800013E0630904339B000B4A9B581F222240D340DB0707D5300000F05EF805003100200000F027F92C360134002CE9D0280070BDC04674E10100FC2A0020F8B500230D
:4027C00009E01C491A1D92008818002444600120404250500133002BF3D0174C012324E06068A37E134A521900211176023BDBB2012B18D82369002B01D0C2791A7067680F
:4028000000260EE0331D5B00FB1801225242DA80606A002804D07300C018084900F0CEFE0136002EEED02C342B005D1E002BD7D1F8BDC046FC2A002074E10100FFFF000046
:4028400030B50B884A889C1A0025CD800079844200DDCC8030BDC046F0B583B0070084684568837E01930026002300930BE0019A2100280000F08AF9009021002800FFF791
:40288000DFFF0A3401363B8B9E42F0D3009803B0F0BDC046F0B55F4656464D464446F0B485B0844688460B8B8A684F680969894641464E6A002803D17888B979401802E0C3
:4028C0007988B879081A0025012109E0D388984201D3002300E00B001D430A32490023005C1E002BF2D1002D0CD04B461B78002B02D0013B4A4613704B461B78002B04D031
:40290000654602E0FB794A461370002D56D07B88BA799A1A43461B8B994619004346986800F09CFD041E59D043469B7E022B55D100234A464146096A03A800F0FBFD040089
:4029400043465B69019343465B6A9A460023994631E04B465B0003AAD35A9B464B4604335B00FB18DA88224B9A4204D15946504600F024FE10E0019BDB060DD55346198808
:4029800028234246D25C0023584600F0F5F883B29B4653465A461A804B4604335B00FB185A46DA805346002B02D002239C46E24401239C46E1444C45CBD80FE000240DE03D
:4029C000231D5B00FB1801225242DA80002E04D060003018064900F0F1FD0134002CEFD0280005B03CBC90469946A246AB46F0BDFFFF000070B504008B7E144A1218157EC6
:402A0000023BDBB2012B04D82800FFF743FF050002E0002000F07AFF0C4B1B191D7663091F2214401E3AA240002D07D104339B000649CB1859689143596006E004339B008C
:402A40000249CB1859680A435A6070BDFC2A002010B5094C68220021200002F0F3FA074B2380074BA3800423237720001E301022044902F0DEFA10BDFC2A0020E050000004
:402A80007017000064E1010000280FD12C234343084AD3182A331B78023BDBB2012B07D82C23584310184369D88902E0024800E00148704764E10100FFFF00000023024A8C
:402AC000D380024A13607047FC2A00209C1800207047C046FF231940062902D08318002119715300195AC31859808218002313727047C04670B506000D00012305E0220098
:402B000029003000FFF7E6FF23005C1E002BF6D170BDC04610B52C235843064B1B188A00511848009A6894466044997EFFF7E2FF10BDC04674E1010070B505002C2343439B
:402B4000064AD3181B8B04E021002800FFF7E2FF23005C1E002BF7D170BDC04674E1010010B5012303E02000FFF7E6FF23005C1E002BF8D110BDC0469840504380235B00C3
:402B80009A1A51434018000A7047C046F0B5474680B482B007000E00019201233EE06300985BF3185988884205D3431A321900251572012201E00B1A0022002A11D17D79A7
:402BC000AB420ED933191B7A3A7A934205D3220001993000FFF77EFF1FE03219013313721BE03D79AB4204D97D79AB4215D2002A13D1FF23019A1340062B0ED00902331994
:402C000098461B79194308230122FFF7B5FF020A6300F3185A804346187123005C1E002BBDD1002002B004BC9046F0BD054803680F2293431900044B1B7813400B4303603F
:402C40007047C04600FF284062F2FF0F10B5FFF7EDFF10BD10B5044A13680F218B43136000F0D6FA10BDC04600040240024BDB68802018407047C046FC2A002010B50E4BD9
:402C8000DB68DB030DD400280DD1430904339B00094A9B581F220240D340DB0705D4012404E0112402E0012400E00024002C01D100F0C0FA200010BDFC2A002010B5084B1B
:402CC000DB68DB0307D4074B1B78012B05D100F035FA002003E0112001E00120404210BDFC2A0020A018002010B50C4BDB681B0612D40024012040420BE02000FFF7BEFF44
:402D0000002805D10022064B5A70FFF7D7FF04E00134002CF1D000E0112010BDFC2A0020A018002010B504000C4B1B78834214D0012B01D1FFF78EFF012C05D100F026F99B
:402D40000122064B1A7008E0022C06D0042C04D0032C02D00022014B1A7010BDA018002030B500200D4B16E019680A681C69A2430A605C6822689D7E0721A9408A43110055
:402D80000622AA400A43226099680A685C69A2430A601C3301300428E6D930BDA0E101007047C046074A084B1A6001380002074B1860054B1B68002BFBDB054A024B1A6007
:402DC0007047C04640000040000001400003014040FF0080074A084B1A6001380002074B1860054B1B68002BFBDB054A024B1A607047C0464100004000000140040301407E
:402E000041FF008010B5031E01D1002000E00120002803D15521180000F0D8FA10BDC04670B50024002504E02000FFF7EBFF05430134002CF8D0280070BDC04670B5002572
:402E400014E02C236B430B4A9E58002406E0E3001B1B9800301800F0BBF901342C236B43044AD3181B7E9C42F1D30135002DE8D070BDC04674E101002C235843024B1818BE
:402E8000436858897047C04674E1010010B50A4B1C7F0203121A01238B40013B63439A4205D90202101A834203D3402002E0C02000E00020C0B210BDFC2A002010B50C00C1
:402EC000FFF7DAFF40002188FFF7E0FF207310BD10B5002408E02C236343054AD31859682000FFF7EBFF0134002CF4D010BDC04674E1010010B5FFF7A9FEFFF7E9FFFFF7A0
:402F00002FFF00F043F80120FFF70CFF002010BD054A13689B0A9B0213601368802189000B4313607047C0460800284070B50E001500038801249C40013CA3001B195800D7
:402F4000642101F09BFB013083199C4200D22300B04201D8301A00E00020A84203D8AB4203D2062002E0062000E0002070BDC04610B5054AC02314689C432043106008007B
:402F8000FFF728FF10BDC046B413002010B5FFF755FFFFF7BDFF07490B680F229343093A13430B60044B1B68044A1343044A136010BDC04600040240B41300202008E881E3
:402FC0000400284010B50930040001F076F8064A1368FF218B4305490978615C0B43136001F06FF810BDC046080028402CE2010010B5094B1B782C225343084AD3185B68C4
:403000005989187B431FDBB2012B02D8490800D10131FFF7ADFF10BDA318002074E10100028801239340013B1B04014A53607047B413002070B501F040F804001E4B1B687C
:403040001E4A13431E4A13601E4B187FFFF7AAFE1D4A1E4B1A601D4B1B68002BFBDB1C4A1A4B1A601B4E3568272001F01DF81A4B2B401A4A13433360E123DB0100E0013B32
:40308000174A1268120701D4002BF8D1114B1D60094D144B2A681343094A1360102000F02BFC6F2001F000F86A680F4B1A60200001F007F870BDC046B41300202008E881F7
:4030C00004002840FC2A0020410000400000014041FF00800800284000E8FFBFF0060040100028402018E8810C00284010B5044AD36804490B43D360FFF79CFF10BDC04643
:40310000FC2A00208000010070B50400857E067E00F0D3FF23681B680F22B24093431A000423B3401343666832680721A9408A4332602268136000F0C4FF70BDF8B5154FFF
:403140003B78154D2C267343EB185868134C002323703B787343EB1899682378DBB29A00D3185A008A180E4B1A60FFF72BFF3B785E4370592278D2B2D3009A1A9300C01824
:40318000084B1860FFF7C0FF074800F091FBFFF7ADFFF8BDA318002074E10100A2180020642B0020682B0020D141000010B52C235843054BC058CB00591A8B00C018034BE8
:4031C0001860FFF7A1FF10BD74E10100682B002070B50400007EA57E21680B680F22824093430B6000F069FF61680B680722AA4093431A000623AB4013430B6000F061FF35
:40320000A1680B68607E0122824093430B6070BD10B5064B1B78012B06D1054B1868FFF7D7FF0022014B1A7010BDC046A4180020682B0020F8B5114E2C273B004343F31814
:403240005D68C0B20E4C20700120FFF76BFDFFF7DFFF23787B439A590A4B1A600A4BDA687F218A43DA602178DA680A43DA602800FFF7D6FEFFF7BCFEF8BDC04674E101006C
:40328000A3180020682B0020FC2A002070B52C234343134AD3185D68C9B2124C217099682378DBB29A00D3185A008A180E4B1A60FFF7C0FF2800FFF785FE2378DBB20B497A
:4032C000DA00D31A98000B689C4660440860FFF71BFF0122064B1A70064800F0E9FA70BD74E10100A2180020642B0020682B0020A41800208D410000F0B5474680B482B0DE
:4033000007000E0090462A4A13782C214B432949CB185B680193002333701078C0B2264B1978C9B2FFF7B2FF002480256D00BC4202D23378AB4333706D0833782B433370C3
:403340000198FFF73FFEFFF7D1FEE123DB0100E0013B1A4AD268120601D5002BF8D1184B1B681C88002DE2D1114B1B782C225343104A9858104B1A78D2B2D3009A1A93002E
:40338000C018104B1860FFF723FF00220E4B1A70220039000198FFF7C9FD43461A7833789A4201D24246137002B004BC9046F0BDA318002074E10100A2180020FC2A0020CF
:4033C000642B0020682B0020A4180020F0B585B007002C2242431D4B9A185568012303AA13702A889340013B59430800642101F045F90190FAB2164B1A70164800F058FACF
:403400002C0009340022144B1A7000260AE003AA21000198FFF770FF06430F4A13780133DBB213702C237B43084AD318DA7E0A4B1B78DBB29A42EAD803AB1B786B720022D6
:40344000054B1A70300005B0F0BDC04674E10100A31800208D410000A2180020F0B50024334B1C700400002600230BE0E588954206D9AE4204D22E4E3371012737702E00F0
:403480000A3401338B42F1D3294B1B78002B46D14AE0274FBB181B799E00F61874000519ED88AC465600B61875007D1966466E81002B12D18D006D186C000A3C0419E688ED
:4034C0005500AD186C003C19268101339D00EB185D004519EB88A3811FE04D1EEDB2AB420BD10A3C0419E5885400A4186300104CE3181D81C4889C810FE00A3C0419E688F1
:403500005500AD186C000A4D2C19268101339D00EB185D004519EB88A381013200E00022034B1B789A42B4D3014B1878F0BDC046A8180020F0B557464646C0B483B0824677
:403540000F000192984600252DE01B4B5B191C79002C07D16A0052195300174AD31800221A810AE0019B013B9C4206D16A0052195300114AD31800229A816E007219530087
:403580000D4AD3189A891989501A5B89C9185118784301F0FDF87C43444400197F30000A534698530135044B18788542CDD303B00CBC90469A46F0BDA8180020002800D0FC
:4035C00001807047024B1868C00901231840704704020440034B1868C0B27F2290431860C0097047100204407047C046014B58647047C0460000002010B5040000F05DFDC9
:40360000044A1168044B0B40A4031C43146000F058FD10BD00E400E0FF3FFFFF0222014B1A60704700E100E00222014B1A60704780E100E010B5FFF7F7FF0448FFF7D6FF91
:403640000220FFF7D9FFFFF7E9FF10BDE935000010B50400FFF7E8FF2000FFF7C7FF0220FFF7CAFFFFF7DAFF10BDC0460222014B1A60704780E200E010B500F01EFD0B4A84
:40368000117820230B43DBB2137009490A7810231A43D2B20A70074A11780B43DBB2137000F00FFDFF2000F011F910BD91000F4093000F4092000F40014B1878C0B27047BC
:4036C00063000F40014B1878C0B2704762000F40034B1B785B07FBD5024B18807047C04663000F4080100F4010B501E00E4B1B880E4B1B789B06F9D400F0DFFC0C490A787E
:40370000012401231A43D2B20A700A78A2430A70084A11780B43DBB213701378A343137000F0CFFC10BDC046A0100F4062000F4090000F4091000F4010B51F22064B1A70F9
:40374000FFF7D2FFFFF7B8FFFFF7BCFF0023034A1370034A137010BD81000F4083000F4082000F4010B5064B1B78002B04D1FFF7E3FF0122024B1A70FFF77EFF10BDC04660
:40378000B6180020044A1368DBB20F218B430840184310607047C04600000440024B1B680F2018407047C04604000440024B1868400807231840704704030440034A1068F9
:4037C0000E231840106040087047C04610030440034A117880235B420B43DBB21370704770000F40014B18707047C04603000F40014B18707047C04643000F40014B1870B0
:403800007047C04623000F4010B50C490B783F22934309221343DBB20B70094A117801230B43DBB21370FF20FFF7DCFFFF20FFF7DFFFFF20FFF7E2FF10BDC04670000F4033
:4038400093000F4010B5064B1B78002B04D1FFF7DBFF0122024B1A70FFF7BAFF10BDC046B71800208023014AD05070470000002010B5040000F021FC044A1368C0218B434F
:40388000A4011C43146000F01CFC10BD10E400E080225202014B1A607047C04600E100E080225202014B1A607047C04680E100E010B50400FFF7F4FF2000FFF7D3FF022037
:4038C000FFF7D6FFFFF7E4FF10BDC046044B1B68002BFBDB0002034B1843014B186070470000014042000080024B1B68012018407047C0460C002E401F2318401E3B83401F
:40390000014A13607047C04600E100E001BE704770B504000D001F2802D90020FFF7F6FF1034A40080239B059C4664442068256070BDC04670B504000E00032902D900201F
:40394000FFF7E4FF1F2C02D90020FFF7DFFF03252540ED00063500F0B0FBA408A400074B9C46644421680323AB4099430B003100A9401943216000F0A4FB70BD00E400E0E0
:4039800010B5040006E0084B586800F08DFB074B9C46644480231B029C42F4D8024B9868604300F081FB10BDBC1300200080FFFF10B5034B1B7B584300F076FB10BDC04679
:4039C000BC130020F0B557464E46C0B483B0040000F073FB0190E71E2D2F74D83F4B1B78DBB29C4208D83E4B1B78DBB29A463D4B1B78DBB2994631E03B4B1B78DBB29C42AE
:403A000008D83A4B1B78DBB29A46394B1B78DBB2994623E0374B1B78DBB29C4208D8364B1B78DBB29A46354B1B78DBB2994615E0334B1B78DBB29C4208D8324B1B78DBB24D
:403A40009A46314B1B78DBB2994607E02F4B1B78DBB29A462E4B1B78DBB299462D4BDE5D2F2E09D92A2C07D919222B4B1A60052000F01AFB192503E0274B1D683F231D40BE
:403A8000B54206D9234BDA5D234B1A60052000F00BFB1F4B9C4664442378DBB21F4A13601F4B52461A601F4B4A461A600520FFF77FFFB5420AD2174BDA5D174B1A6005209A
:403AC00000F0F2FA02E00020FFF720FF019800F0F8FA03B00CBC91469A46F0BD40F3FF0F41F3FF0F42F3FF0F43F3FF0F44F3FF0F45F3FF0F46F3FF0F47F3FF0F48F3FF0F0C
:403B000049F3FF0F4AF3FF0F4BF3FF0F4CF3FF0F4DF3FF0F30E201002CFF0B4028FF0B401CFF0B4020FF0B4010B504000F4A116801230B4313600E4A0E4B1A600E4A1368C0
:403B4000802109020B431360002809D100200CE00120FFF72DFFFFF7C7FE002804D1013C002CF5D1102000E0002010BD60F02E400220000078002E4010002E4010B500F0AA
:403B80009CFA044A136804218B43136030BF00F098FA10BD10ED00E010B500F08EFA1F4A13689B009B0813601D4A13689B009B0813601C4A13689B009B0813601A4A13684F
:403BC0009B009B081360194A13689B009B081360174A13689B009B081360164A13689B009B081360144A1368802109060B431360124B1B889BB2124A1360124A116804230A
:403C00000B43136010490B68FF2293430E3A13430B6030BF00F055FA10BDC0460800044008010440080204400803044008040440080504400806044000000B4050F2FF0F32
:403C40000C000B4010ED00E02C000B40034B1868C0231B02184000D00120704700010B4010B50D4B1A6801218A431A601A68022082431A60094A10683024A043203C2043D3
:403C800010601068093CA043014311601A68802109060A431A6010BD00F02E4000FF2E4070B51D4B1B6801241C40002802D0012816D02BE0184B1968012291431960196834
:403CC000022081431960154B19682E3081432038014319601968093881430A431A6018E00D4B1A6802218A431A600C4A10680725A843014311601168302081431038014311
:403D00001160196801220A431A6002E00020FFF7FDFD200070BDC04600F02E4000FF2E4010B500F0CAF9044A1368C02109020B43136000F0C6F910BD00010B4010B500F02C
:403D4000BCF908490A68084B1A408024E40122430A600A6813408022120213430B6000F0B0F910BD00010B40FF3FFFFF70B5050000F0A3F90400FFF769FF002803D0FFF793
:403D8000DDFF012100E0002108482840084A1568084B2B40184310601368012901D1FFF7BFFF200000F08DF970BDC0460404040010020B40FBFBFBFF10B5022805D880005B
:403DC000044B1B189869996103E00020FFF79EFD002010BDB818002010B502280BD88000074BC158074B5A6A8A435A62064A53680B43536002E00020FFF788FD10BDC0461D
:403E000060E20100B8180020D013002010B5244B1B685B0715D5234B5B685B070ED5224B596A042001401F4C62688A4362605A6A82435A629B69002B00D098470420FFF73D
:403E400095FF174B1B685B0518D5164B5B685B0510D5154B596A8022D2001140114842688A434260596A114A0A405A62DB69002B00D098478020C000FFF778FF084B1B68D4
:403E80005B030CD5074B5B685B0304D5064B1B6A002B00D098478020C002FFF767FF10BD10020B40D0130020B8180020FFFBFFFF10B503210F20FFF73DFD24490F20FFF71A
:403EC00027FD0122224B1A60224B1B68002B01DA214900E02149224A13680B431360214A214B1A60214A224B1A600023214A1360214A22490A6022490A6022490A6880200C
:403F0000400202430A60204A1360204A136001221F4B1A601F4908681F4B03408020800503430B601D4B1A6000230CE09A001C495018002101605C001A482152C220C000C7
:403F4000194950500133002BF0D010BD9940000020003A4080033A40700210537002005300003A40BD00008004003A400000FF0718003A401C003A400200020010003A4058
:403F800014003A4000033A4028023A4038023A4018023A4030003A40FEFFFFDF040F3A4080003A40702B00206C2B002010B5094B1B68002B0CDB084B1B68002BFBDB054AB8
:403FC0001368802109060B4313600A20FFF7F0FC10BDC04600003A4008023A4010B5064B1B78002B04D1FFF763FF0122024B1A70FFF7DCFF10BDC046E0180020034A136879
:40400000802149020B4313607047C04604003A4010B5041E02D00020FFF778FC002C07D1A400054B9C46644420680004000C00E0002000B210BDC04680013A4070B5040092
:404040000D00002802D00020FFF760FC63000F4A995A09B2691A09B20D484843002906DDA3000C4A9A58D30F9A18531006E0A300084A9A58D30F9A18521053421818A40025
:40408000044BE15800F084FB00B270BD702B0020102700006C2B0020014B1A681A60704710023A40000000000230800803D00138FDD1C046C046C0467047EFF3108072B6FF
:4040C000704780F310887047044B1A68044B1B78044909685B00D1527047C046642B00202CE201000C00284010B5214B1B782C225343204AD3181A7E013A1F4B1B78DBB20F
:404100009A421CD91C4A13780133DBB21370184803782C214B431749CB189C681378DBB29900CB1859006118144B19600078C0B21178C9B2FFF73AF8FEF77CFF16E00022A0
:404140000D4B1A700E4AD1680E4B0B40D3600E4B1B78012B02D1FEF723FE07E0084BDA6880218A43DA601A8901321A8110BDC046A318002074E10100A2180020642B0020D2
:40418000FC2A0020FFFFFEFFA118002010B50122094B1A60FFF798FF084B1B68084A1343084A1360084B1A8901321A81D968074A0A40DA6010BDC04614002840B41300204F
:4041C0002008E88104002840FC2A00207FFFFEFF10B50F4B1B782C2253430E4A9C580E4B1A78D2B2D1008A1A9300E41801220B4B1A60FFF769FF0A4B1B680A4A13430A4A85
:4042000013602000FEF7E4FFFFF76EFF10BDC046A318002074E10100A218002014002840B41300202008E88104002840F0B557464E464546E0B4C0B080460E0017008A1880
:40424000204B9A422FD80B0A99461C0200239C46002522E0B4420CD3BD420AD24246515D6A46D1542278D2B28A4200D00120013502E022786946CA540134013301E0002033
:404280000023FF2BE6D9002804D06946484600F05DF9844601239A46D144BD4205D26346002BECD001E001239C466346012B02D901235B429C46604640B01CBC90469946CD
:4042C000A246F0BDFFFF03000160704701607047324B1A781202324B1B781A43314B1B781B02314909780B4330498B4201D1072A06D0D42109018B4206D1042A04D102E04C
:404300002B4B042200E02A4B2A490B602A4B1A602A4B1B781B022A4A1278134380229201934202D0002B02D002E0264B00E0254B254A1360254B1B781B02254A1278134379
:40434000244A934205D0244A934204D0052B05D103E0224B02E0214B00E0204B204A1360204B1B681B09204A1268AA2A15D1012B13D9164B1B780E2B0FD11C4B1B781B0256
:404380001B4A127813431B4A13601B4B1B781B021A4A127813431A4A1360704759F1FF0F58F1FF0F5FF1FF0F5EF1FF0F580B0000580D00006C002E4074002E405BF1FF0FB0
:4043C0005AF1FF0F0220000078002E405DF1FF0F5CF1FF0F0F0F000005050000050F000080002E40EC0F00F0E00F00F06DF2FF0F6CF2FF0F84002E406FF2FF0F6EF2FF0F09
:4044000094002E4010B5FFF7D3FA10BD10B5FFF7B7FA10BD10B500F077F810BD10B500F07BF810BD10B500F077F8034800F056F8022000F059F810BD7546000010B502485F
:4044400000F072F810BDC04675460000004870470202000010B516F061FE10BD10B516F069FE10BD10B516F051FE10BD10B516F049FE10BD10B516F04DFE10BD10B516F0E7
:4044800055FE10BD10B516F039FE10BD10B516F049FE10BD10B516F055FE002010BDC04610B516F053FE002010BDC04610B516F021FE10BD10B516F019FE10BD10B513F0E0
:4044C000A2FC10BD10B516F039FE10BD10B505F0F7FA10BD10B516F03DFE10BD014B18677047C0460000002010B50400FFF7E5FD044A1368C0218B43A4011C431460FFF708
:40450000E0FD10BD0CE400E080225201014B1A607047C04600E100E080225201014B1A607047C04680E100E010B50400FFF7F4FF2000FFF7D3FF0220FFF7D6FFFFF7E4FFAF
:4045400010BDC046002070470020704730B5C5B004000023439342933D4B984272D8002970D08022520002A800F063FD394B9C4201D9394B00E0394B0093FF230193384B9B
:404580006A461A603749384A1160C0461B681B0F1B07F0221206934204D1314B1B68FF2213400DE02E4B1B681B0F1B07A0221206934204D02A4B1B68FF22134000E000231B
:4045C0004393439B002B3FD1FFF777FD0500FFF7B9FF4290439B002B25D1244A0092009A2404144300941E4A6946116020481E490860C0461268120F1207F02109068A42CC
:4046000004D1174B1B68FF2213400BE0144A1268120F1207A02109068A4203D0104B1B68FF2213404393429B002B07D1FFF78CFF4290429B002B01D0429B43932800FFF7DB
:4046400040FD01E004234393439845B030BDC046FF030000FF010000B6D70001B6D70000080010400400008004001040B6D800000500008010B518F005F910BD00224308F7
:404680008B4274D303098B425FD3030A8B4244D3030B8B4228D3030C8B420DD3FF22090212BA030C8B4202D31212090265D0030B8B4219D300E0090AC30B8B4201D3CB0354
:4046C000C01A5241830B8B4201D38B03C01A5241430B8B4201D34B03C01A5241030B8B4201D30B03C01A5241C30A8B4201D3CB02C01A5241830A8B4201D38B02C01A52417F
:40470000430A8B4201D34B02C01A5241030A8B4201D30B02C01A5241CDD2C3098B4201D3CB01C01A524183098B4201D38B01C01A524143098B4201D34B01C01A524103098C
:404740008B4201D30B01C01A5241C3088B4201D3CB00C01A524183088B4201D38B00C01A524143088B4201D34B00C01A5241411A00D20146524110467047FFE701B50020E3
:4047800000F0F0F802BDC0460029F7D076E7704703460B437FD4002243088B4274D303098B425FD3030A8B4244D3030B8B4228D3030C8B420DD3FF22090212BA030C8B428B
:4047C00002D31212090265D0030B8B4219D300E0090AC30B8B4201D3CB03C01A5241830B8B4201D38B03C01A5241430B8B4201D34B03C01A5241030B8B4201D30B03C01AB1
:404800005241C30A8B4201D3CB02C01A5241830A8B4201D38B02C01A5241430A8B4201D34B02C01A5241030A8B4201D30B02C01A5241CDD2C3098B4201D3CB01C01A524100
:4048400083098B4201D38B01C01A524143098B4201D34B01C01A524103098B4201D30B01C01A5241C3088B4201D3CB00C01A524183088B4201D38B00C01A524143088B4266
:4048800001D34B00C01A5241411A00D201465241104670475DE0CA0F00D04942031000D34042534000229C4603098B422DD3030A8B4212D3FC22890112BA030A8B420CD323
:4048C000890192118B4208D3890192118B4204D389013AD0921100E08909C3098B4201D3CB01C01A524183098B4201D38B01C01A524143098B4201D34B01C01A52410309EB
:404900008B4201D30B01C01A5241C3088B4201D3CB00C01A524183088B4201D38B00C01A5241D9D243088B4201D34B00C01A5241411A00D20146634652415B10104601D301
:404940004042002B00D54942704763465B1000D3404201B5002000F005F802BD0029F8D016E770477047C04670B5041E28D000F007FB9E231B1A962B0ADC9622D21A9440E0
:404980006202520AD8B25202520AC005104370BD992B18DC9922D21A9440114A2240610704D00F210C40042C00D00432510103D50B4B1A409F231B1A9201520AD8B2E2E7C7
:4049C00000200022DFE705222500121AB921D5402200C91A8A40541EA2412C001443DCE7FFFFFFFBF0B55F4656464D464446F0B40D0399464E002B0B87B0070092468046F0
:404A00009B46760DCC0F002E69D06D4B9E4235D05B468022DD001204430F13432B439B46C3009846674B00279C460023664401934A4615035000D20F53462D0B400D91467B
:404A400000D176E05E4A90426CD080225B0F120413435C4AED0094461D4353460022DB00604449463618701C6140029017430F2F00D9AFE05448BF00C759BF465B461F43BB
:404A800000D088E000239B469846023308270193CEE74946022A6AD0032A00D109E2012A00D0BBE111400022002300259046CCB200212D030A0D12052D0B1543434A1B05EF
:404AC00015401D436D00E4076D0825434046290007B03CBC90469946A246AB46F0BD034352D05B46002B00D18AE1584600F048FA03000B3B1C2B00DD7BE11D22D31A3A00C4
:404B000001005D46DA4008398D4013008F402B439B46B8462E4B00279C46002360444642019385E752462A432CD100250023022297E752462A4321D0002D00D154E128006C
:404B400000F01EFA03000B3B1C2B00DD46E11D21CB1A51460200D9405346083A954093400D431B4A944660444042002279E7012400220C40124B0025904699E70025002357
:404B800001226EE703226CE700239B4698460133042701934CE703230C27019348E700238025984600242D03054B81E75D464346019A6FE75D4643462100019A6AE7C046D3
:404BC000FF07000001FCFFFF6CE20100FFFF0F80F30300004246120C91461A0C9446424617044A461B041B0C5A43604690464A4642431000039262461C003F0C7A437C438E
:404C000042440192220C9246019A5244904506D98246802040028046C24450460390100C049048462404240C1204121905922A0C2D042D0C68432C00824648467C43504344
:404C40008146200C8046574357444744BA4503D9802040028046C144380C3F04B84648442404240C01900498A044404404905846000C814658460404200C82460700484601
:404C80005F434C464343604660436446834650464443380C8446E4186444A34203D980235B029C46E34448463F04230C3F0C2404E419574668436F4384464D4650465543F0
:404CC0004243380C814662444A445B44944503D9802040028446654403983F04834604983F0C8446E344C345804140428246100484460198674484466744A344BC46A3454D
:404D0000A4419946D44464428742BF41D4458041E144A04699459B417F424042C8440743120CBA18A045A4415F423B0064422343D71843467D19DB0D6D021D435B465A028C
:404D4000059B1A43531E9A415B46DB0D1A4343465B021343EA0107D501225C0813402343EA07029E13436D08574AB218002A4BDD580709D00F201840042805D0181D9842D9
:404D80009B415B42ED180300E80104D54F4A15408022D200B2184E48824200DDE7E60124DB08680718436D02530580462D0B5B0D0C407DE6802259461203114208D01542FA
:404DC00006D115432D0398462D0B4C46414B6FE65D4615432D032D0B3E4B69E603005546283B9D400023BCE6504600F0C9F82030A8E60300283B9F400023BB46984689E612
:404E000000F0BEF8203073E60124A61A382E07DD00220C4000230025904649E6029EA3E71F2E20DC20222C001800921BF040944093400443581E83411C43F540630709D064
:404E40000F232340042B05D023001C1D9C4292415242AD182B021FD5012400220C4001230025904624E61F202C004042821AD440202E1CD04022961BB5402B43581E8341CF
:404E80000720234318400025002809D00F2200251A401C00042AD8D1230068076D022D0B0124DB08034398460C40002300E60025E3E780220124120315432D0398462D0B21
:404EC0000C40044BF4E5C046FF030000FFFFFFFEFE070000FF0700004200120E511C4302C9B270B55D0AC40F012915DDE02189008C466D071B0B6244002128000D0D2D05F5
:404F00002B431C4D52052B40520813435B00E4075B082343190070BD002A15D1002D1FD0280000F02DF80A281DDC0B232A001B1ADA4013000200153295400F4A1B03121AC4
:404F400052051B0B520DD7E7002D06D080221B0B120313436D07094ACEE7084A0023CBE700220023C8E703000B3B9D402B000025E3E7C046FFFF0F8089030000FF07000065
:404F80001C2101231B04984201D3000C10391B0A984201D3000A08391B09984201D30009043902A2105C40187047C04604030202010101010000000000000000014B186838
:404FC0007047C046F01700200E4B70B500251E000D4CE41AA410A54204D0AB00F35898470135F8E719F066FA084B00251E00084CE41AA410A54204D0AB00F3589847013591
:40500000F8E770BDC0E40100C0E40100C0E40100C8E4010030B50024A24208D0035D651C0C5DA34201D0181B02E02C00F4E7002030BD002310B59A4203D0CC5CC4540133CF
:40504000F9E710BD03008218934202D019700133FAE77047F0B58BB014001D1E129906DA802424061B191D0014002D2300E000230B702023149E03229E43462E07D03300B6
:40508000453B59424B411099013ACB18109309AB049308AB0393139B00920293109B220001932B0000F042FE0700472E02D1119BDB072DD5109BFB180793462E14D13B7877
:4050C000302B0CD1002200232000290002F004FC002804D10123109A9B1A139A1360139B079A1B68D3180793002200232000290002F0F2FB3022002802D0079B099307E023
:40510000099B0799994203D9591C09911A70F7E73800099B159ADB1B13600BB0F0BDF7B52B2307000C000270861C002901DA2D234C427B70092C1CDD6B46DD1D20000A218F
:40514000FFF70CFC013D3031297020000A21FFF71FFB04000928F1DC013D30342C706B4607333000AB4209D92B78013533700136F5E73023E4183370B01C7470C01BFEBDAD
:40518000F0B595B00C000A920B931A9D099001F01BFD036818000D9300F06CFC0023129323680E900C930C99277E2B680722C90501D59B1800E0073393431A0008322A6030
:4051C0001A685B68A264E3640122E56CA66C6B005B080F935242C04B30000F9903F04EFE002819D10122BC4B524230000F9902F083FB002810D1002200233000290002F0C0
:4052000071FB002803D023002D2243331A70B34D472F0ED8B24D0CE032002B003000290003F02CFE002800D19AE1AE4D472F00D8AD4D03230C9A236101339A4322600026BB
:4052400042E0672F00D193E1472F00D190E10C9A0021134312AA059211AA0392232223600691019308A9636852180292009332002B0004970998FFF7EDFE20233A000500BD
:405280009A43472A00D18EE11199652F00D996E1200001393A0050301191FFF740FF129A060083182361012A00DD85E12268D20700D581E1232308AA9B181B78002B03D0D2
:4052C00023002D2243331A700B9B13AA009321000A9B099800F0A4F9431C02D1012040429BE12268530501D4236964E0652F00D8CCE0A06CE16C0022002302F0EDFA0028C3
:405300002CD00123794A0A9909980B9DA847431CE4D0119B129A934208DB2368DB0705D4236800259B0700D50FE113E10B9D0E9B0D9A0A990998A8470025431CCED0129B41
:40534000013B9D42ECDA220001231A320A9909980B9EB047431CC1D00135F0E7119B002B2BDC0123614A0A9909980B9EB047431CB4D0119B002B05D1129B002B02D1236882
:40538000DB07CDD50B9E0E9B0D9A0A990998B0470026431CA2D0119B5B429E420ADA220001231A320A9909980B9FB847431C95D00136F0E7129B2A00ACE0A36D129E9E42DD
:4053C00000DD1E00002E05DC00230C93F343DB170F9315E033002A000A9909980B9FB847431CF1D17AE7220001231A320A9909980B9FB847431C00D170E70C9B01330C93D6
:405400000F9BA26D0C993340D31A9942EBDBAE18119B129A93420DDB2368DB070AD4129B119AED18AD1B9B1A9D4200DD1D00002D09DC11E00E9B0D9A0A9909980B9FB847F4
:40544000431CECD14AE72B0032000A9909980B9EB047431C00D141E7EF43FB1700260C930AE0220001231A320A9909980B9FB847431C00D132E70136119A129B0C999B1AA2
:405480002A000A409B1A9E42EBDB49E7129B012B02DC01231A4245D001232A000A9909980B9FB847431C00D118E70E9B0D9A0A9909980B9FB847431C00D10FE7A06CE16C7B
:4054C0000022002302F008FA002801D000251AE0129B6A1C013B26E0FFFFEF7FB8E20100B4E20100C0E20100BCE20100C4E20100220001231A320A9909980B9FB847431C81
:4055000000D1EBE60135129B013B9D42F0DB2200330050320A9909980B9DA847431C00D0FEE6DBE62A000A9909980B9DA847431CEDD1D3E62200012319320A9909980B9E21
:40554000B047431C00D1C9E60135E368139A9B1A9D42EFDB139BE06898425EDA18005CE080236268DB00511C00D06AE6073202E0002A02D10122626069E60C9908A80B43A9
:405580000021069112A9059111A90391232109182360019300922B000497029132000998FFF758FD0500119BDA1C02DB626893421CDD023FFFB267E6013323617AE6662F07
:4055C00015D16368002909DD2161002B02D12268D2071ED50133591821611AE0002B03D101222168114213D09A1C11E06727119B129A934206DB22682361D20709D50133D7
:40560000236106E00121002B01DC4918C91A8A182261119B0026A3654CE615B0F0BDC046F7B5170001938A680B6900900C00934200DA130022003B6043321278002A01D017
:4056400001333B6023689B0602D53B6802333B60062523681D401ED0230043331B785A1E9341226892061CD53020E1184331087021005A1C45310978A218433202331170B1
:405680000FE022000123193201990098089EB047431C0ED00135E3683A689B1A9D42F0DBDAE72200019943320098089DA847431C02D10120404220E006232068E1683A684D
:4056C00003400025042B03D18D1AEB43DB171D40A3682269934201DD9B1AED180027BD420AD0220001231A3201990098089EB047431CDED00137F2E70020FEBDF0B58BB0DE
:4057000006920A0043320793059004920A7E0C00109B6E2A00D1ABE011D8632A22D009D8002A00D1B5E0582A00D0C5E045310A70814A4FE0642A1DD0692A1BD0BCE0732A6E
:4057400000D1AAE009D86F2A29D0702A00D0B3E0202209680A43226037E0752A1FD0782A33D0A9E00E001A684236111D196013683370A4E021681A68080606D4490604D59D
:40578000111D19600023D55E02E0111D19601568002D3BDA2D23049A6D42137036E021681A68080606D4490604D51568111D1960ADB202E0111D196015685F4B227E0393EA
:4057C00008276F2A1DD00A271BE022007821453211705A4A19680392081D226818600D68100602D4500600D5ADB2D30702D520231A4322601027002D03D1202322689A4394
:4058000022602300002243331A7002E00A274A4B03936368A360002B09DB0422216891432160002D05D1049E002B11D07BE0002D79D0049E28003900FEF7A6FF039B013E86
:405840005B5C280033703900FEF718FF051EF1D1082F09D12368DB0706D563682269934202DC3023013E3370049B9B1B23612BE009681A68080607D4490605D5111D196055
:405880001368A28A1A8004E0111D1960136862691A600023049E236116E01A68111D1960166800216268300001F000FA002801D0801B6060636803E026004236327001230A
:4058C00023610023049A1370079B09AA00932100069B0598FFF7A4FE431C02D10120404227E02369320006990598079DA847431CF4D0236800259B070FD4099BE06898427A
:4059000017DA180015E022000123193206990598079EB047431CE1D00135E368099A9B1A9D42F0DBE9E72600039B42361B7833708EE70BB0F0BDC046C6E20100D7E20100E5
:405940000FB40B4B13B51C68002C05D0A369002B02D1200001F0A4F805AB049AA1682000019301F07BFD16BC08BC04B01847C046F0170020084B70B51C680500002C05D0BE
:40598000A369002B02D1200001F08AF82900A268200001F07FFE70BDF017002070B505000E00002804D08369002B01D101F078F8AB69AC68002B02D1280001F071F8254B9F
:4059C0009C4201D16C6808E0234B9C4201D1AC6803E0224B9C4200D1EC68A3891B0702D52369002B11D12100280000F0A3F800280BD0012040422BE0013B0136A360002BD2
:405A000008DB23685A1C226019703178A3680029F2D10BE0A269934201DB0A29F1D12200280000F02FF8431CEFD1E2E7013BA360002B08DA22000A31280000F023F8431CB7
:405A4000D7D00A2004E00A2023685A1C2260187070BDC046F8E2010018E3010038E3010010B5034B01001868FFF798FF10BDC046F01700200023C25C0133002AFBD1581E1A
:405A800070470000F8B505000F001400002804D08369002B01D101F003F8234B9C4201D16C6808E0214B9C4201D1AC6803E0204B9C4200D1EC68A369A360A3891B070AD5F2
:405AC0002369002B07D023682269FEB2981A636998420FDB08E02100280000F02BF80028F1D0012040421DE02100280000F06AFF0028F6D1A3680130013BA36023685A1C36
:405B000022601F706369984205D0A3893000DB0708D50A2E06D12100280000F053FF0028DFD13000F8BDC046F8E2010018E3010038E30100364B70B51D6806000C00002D04
:405B400005D0AB69002B02D1280000F0A9FF314B9C4201D16C6808E02F4B9C4201D1AC6803E02E4B9C4200D1EC680C22A35E9AB2110723D4D10607D4092201203260373276
:405B80001343A381404242E0530713D5616B002908D023004433994202D0300001F08AFB002363632422A3899343A38100236360236923600822A3891343A3812369002BFA
:405BC0000BD1A0238022A1899B0092000B40934203D02100300001F021F80123A289134005D00023A36063695B42A36103E0920700D46369A36000202369834207D10C221F
:405C0000A35E1A0603D540221343A381013870BDF0170020F8E2010018E3010038E30100F0B503690C6989B00700059100269C4279DC0B00013C1433A50003935B19049385
:405C40000300143302935D19049B28681B68591C0193FEF713FD0190B04233D0039B02989C460696634604CB9C46019B91B25943120C5A4389190B0CD3180793069A1E0C3B
:405C8000038889B29B1802685B1A110C6A46928B8A1A1914521811149BB21204134308C0049B06916345DDD22B68002B0AD1029B043DAB4201D33C6104E02B68002BFAD1F2
:405CC000013CF4E70599380001F00CFA002829DB0020019B02990133039A019340CA0B881818B3B2C31A0868360C000C801B1D14451928149BB22D042B4308C1049B93427B
:405D0000ECD2029AA300D3181A68002A0AD1029A043B9A4201D33C6104E01A68002AFAD1013CF4E7019E300009B0F0BDF0B516001F00446A9DB00490259D06960797002C93
:405D400008D1102000F0A8FF049B5862446084600460C460049B5B6A196800290BD05A68012393404A608B60049800F0E2FF0022049B5B6A1A60079B002B05DA01232B601B
:405D80007B005B08079301E000232B60079CC84B220019931A409A4219D1C64B249A1360069AC54B002A02D1240300D1C34B269A1800002A01D100F07DFDD978DA1C002995
:405DC00000D00532269918000A6000F073FD069E079F002200233000390001F07DFD051E0ED00123249A1360B54B269A1800002A01D100F05FFDB34A26990A6000F05AFDB5
:405E00001AAB01931BAB009332003B00049801F0EFF9630005905B0D09D03A03AA4C120B1443AA4A300021009E1817951AE01A9B1B9A9E18A64BF318202B08DDA54A069874
:405E4000B218D0404022D31A9C40204303E020220698D31A984003F0A9F801239E4C013E0919179300229D4B02F0B4FC9C4A9D4BFEF7B8FD9C4A9D4B01F05CFD0400300015
:405E80000D0003F051F89A4A9A4BFEF7ABFD02000B002000290001F04DFD04000D0003F00DF80022039000232000290001F01AFD00280DD0039803F037F802000B00200081
:405EC000290001F009FD43424341039AD31A039301231693039B162B11D88749DB00C91808684968069A079B01F010FD002805D0039B013B03930023169300E016901A9B63
:405F00009E1B00230B93013E0C9604D50C9B5B420B9300230C93039B002B08DB039A0C9B944663440C9300231192089307E00B9B039A9B1A0B935342089300231193229BE7
:405F40000125092B25D8052B02DD0025043B2293229B981E032824D801F0A4FC060E0204012302E0012308E000231093239B002B20DD1F000A9321E00023239A1093039BC1
:405F80009F187B1C0A930123FA18002A16DD130014E0012700237F42229310950A97123305E0012701237F4210930A9711330022239203E001273B000A972397049A546A02
:405FC00000226260043211001431994204D86168520001316160F6E76168049800F071FE049B20605B6A1B680D930A9B0E2B00D981E1002D00D17EE1069B079C14931594BA
:40600000039B002B31DD0F223B491340DB00CB185C681B680E930F94039B02241D11EB060AD514981599354B15401A6A5B6A01F0ADFF069007910134304E002D0ED0012351
:406040001D4208D00E980F99E41832687368FEF7C9FC0E900F916D100836EEE70E9A0F9B0698079901F092FF4CE0039B02245D42002D49D0149815990F231F4A2B40DB0080
:40608000D3181A685B68FEF7ADFC0023069007911A4E2D11002D33D00122154205D0A41832687368FEF79EFC01236D100836F1E70000F07F0F270000F1E20100E8E20100E1
:4060C000C4E20100C5E201000000F03F01FCFFFF3204000012040000000010FE0000F83F61436F63A787D23FB3C8608B288AC63FFB799F501344D33F60E3010038E4010097
:40610000002B01D006900791169B002B1DD0069D079E0022C74B2800310001F0E3FB002813D00A9B002B10D0002F00DCDFE0039B3100013B0E930022BF4B2800FEF752FC00
:406140000134069007913E0002E0039B0A9E0E93200002F0E9FE069A079BFEF743FC0022B64B01F0E7FBB64A12901391129C139D9446139B634418931D00002E1CD10698FC
:4061800007990022AF4B02F025FB2200189B0690079101F0BBFB002800D054E2AA481399844661440B0006980799220001F09AFB002800D03DE29AE0109A731EA349DB00A8
:4061C000002A49D0CB181A685B680020A04901F0DDFE2B00220002F0FDFA129013910D9D0698079902F06AFE040002F09DFE02000B000698079902F0EDFA01356B1E3034C9
:406200001C70129A139B0690079101F06BFB002800D02EE3069A079B0020864902F0DAFA129A139B01F05EFB002800D0C7E00D9BEB1AB3425BDA1298139900227E4BFEF7A3
:40624000D1FB002212901391069807997A4BFEF7C9FB06900791C3E7C9182200086849682B00FEF7BFFB0D9C12901391A5190698079902F023FE060002F056FE02000B0001
:406280000698079902F0A6FA303626700134069007910022A54222D16D4B1298139901F049FB02000B000698079901F02FFB002800D084E0129A139B0020654902F08AFA10
:4062C00002000B000698079901F00CFB00280ED06B1E1A78302A00D0CBE21D00F8E706980799554BFEF77EFB06900791BFE7149B159C069307941B9B002B00DA81E0039AFA
:406300000E2A00DD7DE0D300504AD3185C681B6808930994239B002B15DA0A9B002B12DC00D088E1089809990022464BFEF75AFB069A079B01F0F4FA0A9B08931E0000285F
:4063400000D07BE182E10D9D069E079F089A099B3000390001F01AFE02F0B0FD040002F0E3FD089A099BFEF73DFB02000B003000390002F02FFA220001356B1E30321A709C
:406380000D9B0A9AEB1A9A422ED102000B0001F0D1FA06000F0002000B000898099901F0A1FA00280FD10898099932003B0001F093FA002800D15EE2E30704D45BE20E9BE2
:4063C000039300E01D006B1E1A78392A08D10D9A9A42F7D1039A0D990132039230220A701A7801321A7046E20022134BFEF7FAFA0022002306000F0001F06EFA0028A5D061
:4064000039E2109A002A44D0229A012A0BDC179A002A02D00F4A9B1802E036231A9A9B1A089D0B9C29E00A9B5D1E089BAB4213DB5D1B18E00000F03F0000244000001C40DC
:406440000000C0FC000014400000C07C60E301000000E03F33040000089B0895EA1A0025119B9B1811930A9B002B04DA0B9B0A9A9C1A002301E00B9C0A9B0B9A0121D2181B
:406480000B920C9A0498D3180C9300F0F2FC060002E0089D0B9C109E002C0ED00C9B002B0BDD0C9A2300944200DD13000B9AE41AD21A0B920C9AD31A0C93089B002B20DD37
:4064C000109B002B17D0002D11D031002A00049800F062FD059A01000600049800F0D2FC05990E90049800F024FC0E9B0593089B5A1B06D000E0089A0599049800F04CFD7F
:4065000005900121049800F0B4FC119B0890002B00D1C0E11A000100049800F03DFD229B0890012B17DC0025069BAB420ED1079B1B03AB420AD1199B079A134206D00B9BF2
:40654000013501330B930C9B01330C93119B0120002B0DD000E00025089B089A1B690E9303339B00D318586800F039FC2023181A0C9BC0181F23184009D001331B1A042BB5
:4065800002DD1C23181A03E0042B08D018001C300B9B24181B180B930C9B1B180C930B9B002B05DD1A000599049800F049FD05900C9B002B05DD1A000899049800F040FD07
:4065C0000890169B002B1DD00899059800F08AFD002817DA039B0A22013B039305990023049800F0BFFB109B0590002B00D159E1310000230A22049800F0B4FB0600002F63
:4066000037DC33E00A9B0A9F002B2ADC229B022B27DD002F12D108993B000522049800F0A1FB08900100059800F05CFD00280DDC04E0089602E000231E000893239B0D9D52
:40664000DB4303930AE00E9B089603930D9B0D9A5D1C31231370039B013303930A960026F3E0109B002B04D10D9DB5E0229B022BCFDC002C05DD31002200049800F0E0FCB7
:4066800006000A96002D12D07168049800F019FB3100040033690C319A1C92000C30FEF7C8FC01222100049800F0CAFC0A900D9B7D1E0B935B190E9308990598FFF7B0FA5D
:4066C000310010900400059800F00CFD0A9A05000899049800F021FD01230C93C36830340700002B04D10100059800F0FBFC0C903900049800F01DFB0C9B229A134308D152
:40670000069A0133134204D1392C2AD0002D1CDC1DE0002D06DB229B1D431BD10123069A134217D10C9B002B11DD05990122049800F086FC0899059000F0D4FC002802DC37
:4067400005D1E30703D5392C0BD0109C31340B9B5D1C0FE00B9B5F1C0C9B002B0CDD392C05D10B9B0B9A5D1C3923137057E03D000B9B01341C7068E00B9B0E9A3D001C702E
:4067800093423CD000230A220599049800F0EAFA0A9B05909E4208D1310000230A22049800F0E0FA06000A900DE0310000230A22049800F0D7FA002306000A220A990498C4
:4067C00000F0D0FA0A900B9776E700230A220599049800F0C7FA059008990598FFF720FA0D9B3030287001350400EB1ABB42ECDB3D1E00DC01250A9600260D9B5D190599A7
:406800000122049800F01CFC0899059000F06AFC002804DC13D1E30701D410E01D006B1E1A78392A08D10D9A9A42F7D1039B013303933123137008E001321A7005E06B1E59
:406840001A78302A01D11D00F9E70899049800F070FA0A9B002B0ED0002E05D09E4203D03100049800F065FA0A99049800F061FA01E00E9B03930498059900F05AFA0023FB
:406880002B70039B249A01331360269B0D98002B10D01D600EE0229B012B00DC43E6119D012065E6002F00DDDEE6229B022B00DCDAE6AEE61DB0F0BDF7B58A8905000C0022
:4068C00013075AD44B68002B02DC0B6C002B19DDE76A002F16D000232E682B6080235B011A4001D0606D14E00123216A2800B847431C0ED12B68002B0BD01D2B01D0162B60
:4069000002D12E6000205AE04022A3891343A38155E0A3895B0706D56368C01A636B002B01D0236CC01A00230200216A2800E76AB847A389421C06D129681D293AD8204A42
:40694000CA40D20736D50022626022692260DB0405D5431C02D12B68002B00D16065616B2E600029CED023004433994202D0280000F0A0FC0020606321E00F69002FC1D0C1
:406980000B680F60DB1B01930023920700D14B69A36003E0019B3F181B1A0193019B002BB0DD019B3A00216A2800A66AB0470028F0DCA389402201201343A3814042FEBD4A
:4069C000010040200B6970B505000C00002B01D100201CE0002804D08369002B01D100F05FF80B4B9C4201D16C6808E0094B9C4201D1AC6803E0084B9C4200D1EC680C2206
:406A0000A35E002BE4D021002800FFF755FF70BDF8E2010018E3010038E3010010B5024900F0B0F810BDC046C5690000002310B5040003604360836081814366C2810361F3
:406A400043618361190008225C30FEF7FBFA054B24626362044BA362044BE362044B236310BDC046257700004D77000085770000B177000070B568254B1E5D430E00290034
:406A8000743100F063FC041E08D000212A00016046600C30A0606832FEF7D4FA200070BD836913B50400002B28D18364C3640365134B144A1B6882620193984201D10123D7
:406AC0008361200000F020F86060200000F01CF8A060200000F018F80022E06004216068FFF7A4FF01220921A068FFF79FFF02221221E068FFF79AFF0123A36113BDC04689
:406B0000B0E201001D6A0000F8B51D4B06001D68AB69002B02D12800FFF7C2FF4835AC686B68013B05D40C22A75E002F10D06834F7E72B68002B01D02D68F0E70421300025
:406B4000FFF798FF28600028F6D10C23336016E0012320005B42E3810233A38167662760A760676027616761A7615C3008223900FEF768FA20006763A763A764E764F8BDFC
:406B8000B0E20100F7B504000700002601914834002C16D06368A5680093009B013B00930DD4AB89012B08D90E22AB5E013304D029003800019B984706436835EDE72468EB
:406BC000E6E73000FEBD000000487047F417002070B50E001D000E23C95E90B01400002906DA00232B60B3891B060FD540230FE001AA00F009FE0028F3DBF023029A1B0209
:406C00001340054A9B185A4253412B608023DB000020236010B070BD00E0FFFFF7B502268B8905000C00334210D101AB6A46FFF7CFFF00990700280000F088FB00280CD1A9
:406C40000C22A35E9A0523D43343A3812300473323602361012363611AE080220D4BAB62A38920601343A381009B20616361019B002B0AD00E23E15E280000F0D7FD0028FD
:406C800003D00122A3891343A381A3891F43A781F7BDC0461D6A000010B5034B0100186800F054FB10BDC046F0170020C9B28218904204D003788B4202D00130F8E700206F
:406CC000704770B5466A04000D00002E07D11020FFF7E2FF6062466086600660C660666AF368002B09D0636AAA00DB689B18186800280ED002681A6017E02122042120008B
:406D000000F0CAFA636AF060DB68002BEBD100200EE001210E00AE40721D9200200000F0BBFA0028F3D04560866000230361C36070BD70B5456A06000C00002D07D11020DE
:406D4000FFF7AAFF7062456085600560C560002C07D0726A6368D2689B00D3181A6822601C6070BDF7B5070008000C000D691E00002101921430019A0388013153439B1982
:406D80000668360C56431A0C9446B4446246160C120494469BB2634408C08D42EBDC002E1BD0A3689D4212DB63683800591CFFF788FF2100236901909A1C92000C310C30A2
:406DC000FEF737F921003800FFF7B3FF019C2B1D9B00E31801355E6025612000FEBD00220300010C914201D103041032190E01D108321B02190F01D104321B01990F01D167
:406E000002329B001000002B03DB20205B0000D5501C70470722036810B501001A400CD001240020234223D10222134203D0E34020000B601CE09B0818E098B2002801D1D4
:406E400010221B0CD8B2002801D108321B0A180701D104321B09980701D102329B08D80704D45B082020002B02D0013210000B6010BD10B50C000121FFF723FF012344619D
:406E8000036110BDF0B50B691400126989B00D00934201DA25000C002F692669AA68BB1969680193934200DD0131FFF70AFF0200BB1914329B00D3189C4600211300029033
:406EC000634501D202C3FBE71435BF00EB191434B6000593A31903950793079B9C4251D2208800281ED015000026039F08CF069504936B461B8A434319002B88CB18049971
:406F00009B19090C41432E68360C89191E0C89190E0C9BB209040B4308C5059BBB42E5D8069B5E6023681D0C1FD0002110001368039F04913E8801686E43090C7118049ED0
:406F40009BB289190E043343036008CF86881B0C6B43090C9B195B18190C0491059906900430B942E6D806994B6004340432B4E704235B429C4463461B68002B05D1019BA6
:406F8000013B0193019B002BF2DC029B019A18001A6109B0F0BD00000323F7B5134005000E001400002B08D02349013B9A00525800233100FFF7D6FE0600A310019338D08D
:406FC0006C6A002C07D11020FFF766FE6862446084600460C4606F6ABC68002C10D117492800FFF746FF0023B8600400036007E0019B5B1001931CD02068002810D00400E2
:407000000122019B1342F3D0310022002800FFF739FF070031002800FFF78BFE3E00E7E7220021002800FFF72DFF002320600360E5E73000FEBDC04628E401007102000015
:40704000F0B50C0017002369551185B0EB180193013300934968A3680290009A934202DA01315B00F9E70298FFF72BFE00230200060019001432AB4203DA98001150013383
:40708000F9E7EB43DB171D402300AD0055192269143392009A1894461F22174014D00132D21B0392002219682800B9400A4304C504CB0399CA409C45F5D84260002A07D074
:4070C000019B0233009303E004CB04C59C45FBD8009B0298013B33612100FFF72AFE300005B0F0BD03690A6910B59B1A0400181E12D1930014341431E218C918043A04393B
:4071000013680868834204D083429B410120184302E09442F2D3002010BDF0B50C0085B00700110020001500FFF7DCFF061E07D101003800FFF7C5FD01234661036155E0EF
:4071400000230193984204DA23002C001D000123019361683800FFF7B4FD019B26692F00C3601434B300E318020002932B69002514379B00FB180393143208CC69469C46D7
:4071800008CF0432009363468B808B885D19009B9BB2EB1A65460193009B2D0C190C019B691A1D14131F9C466B4649199B880D1409040B4361460B60039BBB42DDD80299BA
:4071C00013008C420BD202CC8BB25B191D14090C49190D149BB209040B4308C2EFE7043B1A68002A01D1013EF9E7066105B0F0BDF7B51D000121089F1400FFF762FD2B0373
:407200006D0006001B0B6D0D02D08022520313430193002C18D068460094FFF7FBFD009C002809D0019B20211A00091A8A40C34022437261019300E07461019CB461631E0C
